{
  "contractName": "IngToken",
  "abi": [
    {
      "inputs": [],
      "stateMutability": "nonpayable",
      "type": "constructor"
    },
    {
      "anonymous": false,
      "inputs": [
        {
          "indexed": true,
          "internalType": "address",
          "name": "owner",
          "type": "address"
        },
        {
          "indexed": true,
          "internalType": "address",
          "name": "spender",
          "type": "address"
        },
        {
          "indexed": false,
          "internalType": "uint256",
          "name": "value",
          "type": "uint256"
        }
      ],
      "name": "Approval",
      "type": "event"
    },
    {
      "anonymous": false,
      "inputs": [
        {
          "indexed": true,
          "internalType": "address",
          "name": "previousOwner",
          "type": "address"
        },
        {
          "indexed": true,
          "internalType": "address",
          "name": "newOwner",
          "type": "address"
        }
      ],
      "name": "OwnershipTransferred",
      "type": "event"
    },
    {
      "anonymous": false,
      "inputs": [
        {
          "indexed": false,
          "internalType": "address",
          "name": "account",
          "type": "address"
        }
      ],
      "name": "Paused",
      "type": "event"
    },
    {
      "anonymous": false,
      "inputs": [
        {
          "indexed": true,
          "internalType": "address",
          "name": "from",
          "type": "address"
        },
        {
          "indexed": true,
          "internalType": "address",
          "name": "to",
          "type": "address"
        },
        {
          "indexed": false,
          "internalType": "uint256",
          "name": "value",
          "type": "uint256"
        }
      ],
      "name": "Transfer",
      "type": "event"
    },
    {
      "anonymous": false,
      "inputs": [
        {
          "indexed": false,
          "internalType": "address",
          "name": "account",
          "type": "address"
        }
      ],
      "name": "Unpaused",
      "type": "event"
    },
    {
      "inputs": [],
      "name": "_name",
      "outputs": [
        {
          "internalType": "string",
          "name": "",
          "type": "string"
        }
      ],
      "stateMutability": "view",
      "type": "function"
    },
    {
      "inputs": [],
      "name": "_symbol",
      "outputs": [
        {
          "internalType": "string",
          "name": "",
          "type": "string"
        }
      ],
      "stateMutability": "view",
      "type": "function"
    },
    {
      "inputs": [],
      "name": "_totalSupply",
      "outputs": [
        {
          "internalType": "uint256",
          "name": "",
          "type": "uint256"
        }
      ],
      "stateMutability": "view",
      "type": "function"
    },
    {
      "inputs": [
        {
          "internalType": "address",
          "name": "owner",
          "type": "address"
        },
        {
          "internalType": "address",
          "name": "spender",
          "type": "address"
        }
      ],
      "name": "allowance",
      "outputs": [
        {
          "internalType": "uint256",
          "name": "",
          "type": "uint256"
        }
      ],
      "stateMutability": "view",
      "type": "function"
    },
    {
      "inputs": [
        {
          "internalType": "address",
          "name": "spender",
          "type": "address"
        },
        {
          "internalType": "uint256",
          "name": "amount",
          "type": "uint256"
        }
      ],
      "name": "approve",
      "outputs": [
        {
          "internalType": "bool",
          "name": "",
          "type": "bool"
        }
      ],
      "stateMutability": "nonpayable",
      "type": "function"
    },
    {
      "inputs": [
        {
          "internalType": "address",
          "name": "account",
          "type": "address"
        }
      ],
      "name": "balanceOf",
      "outputs": [
        {
          "internalType": "uint256",
          "name": "",
          "type": "uint256"
        }
      ],
      "stateMutability": "view",
      "type": "function"
    },
    {
      "inputs": [],
      "name": "decimals",
      "outputs": [
        {
          "internalType": "uint8",
          "name": "",
          "type": "uint8"
        }
      ],
      "stateMutability": "view",
      "type": "function"
    },
    {
      "inputs": [
        {
          "internalType": "address",
          "name": "spender",
          "type": "address"
        },
        {
          "internalType": "uint256",
          "name": "subtractedValue",
          "type": "uint256"
        }
      ],
      "name": "decreaseAllowance",
      "outputs": [
        {
          "internalType": "bool",
          "name": "",
          "type": "bool"
        }
      ],
      "stateMutability": "nonpayable",
      "type": "function"
    },
    {
      "inputs": [
        {
          "internalType": "address",
          "name": "spender",
          "type": "address"
        },
        {
          "internalType": "uint256",
          "name": "addedValue",
          "type": "uint256"
        }
      ],
      "name": "increaseAllowance",
      "outputs": [
        {
          "internalType": "bool",
          "name": "",
          "type": "bool"
        }
      ],
      "stateMutability": "nonpayable",
      "type": "function"
    },
    {
      "inputs": [],
      "name": "name",
      "outputs": [
        {
          "internalType": "string",
          "name": "",
          "type": "string"
        }
      ],
      "stateMutability": "view",
      "type": "function"
    },
    {
      "inputs": [],
      "name": "owner",
      "outputs": [
        {
          "internalType": "address",
          "name": "",
          "type": "address"
        }
      ],
      "stateMutability": "view",
      "type": "function"
    },
    {
      "inputs": [],
      "name": "paused",
      "outputs": [
        {
          "internalType": "bool",
          "name": "",
          "type": "bool"
        }
      ],
      "stateMutability": "view",
      "type": "function"
    },
    {
      "inputs": [],
      "name": "renounceOwnership",
      "outputs": [],
      "stateMutability": "nonpayable",
      "type": "function"
    },
    {
      "inputs": [],
      "name": "symbol",
      "outputs": [
        {
          "internalType": "string",
          "name": "",
          "type": "string"
        }
      ],
      "stateMutability": "view",
      "type": "function"
    },
    {
      "inputs": [],
      "name": "totalSupply",
      "outputs": [
        {
          "internalType": "uint256",
          "name": "",
          "type": "uint256"
        }
      ],
      "stateMutability": "view",
      "type": "function"
    },
    {
      "inputs": [
        {
          "internalType": "address",
          "name": "recipient",
          "type": "address"
        },
        {
          "internalType": "uint256",
          "name": "amount",
          "type": "uint256"
        }
      ],
      "name": "transfer",
      "outputs": [
        {
          "internalType": "bool",
          "name": "",
          "type": "bool"
        }
      ],
      "stateMutability": "nonpayable",
      "type": "function"
    },
    {
      "inputs": [
        {
          "internalType": "address",
          "name": "sender",
          "type": "address"
        },
        {
          "internalType": "address",
          "name": "recipient",
          "type": "address"
        },
        {
          "internalType": "uint256",
          "name": "amount",
          "type": "uint256"
        }
      ],
      "name": "transferFrom",
      "outputs": [
        {
          "internalType": "bool",
          "name": "",
          "type": "bool"
        }
      ],
      "stateMutability": "nonpayable",
      "type": "function"
    },
    {
      "inputs": [
        {
          "internalType": "address",
          "name": "newOwner",
          "type": "address"
        }
      ],
      "name": "transferOwnership",
      "outputs": [],
      "stateMutability": "nonpayable",
      "type": "function"
    },
    {
      "inputs": [],
      "name": "pause",
      "outputs": [],
      "stateMutability": "nonpayable",
      "type": "function"
    },
    {
      "inputs": [],
      "name": "unpause",
      "outputs": [],
      "stateMutability": "nonpayable",
      "type": "function"
    }
  ],
  "bytecode": "0x60806040526040518060400160405280600b81526020017f494e474f4f20544f4b454e00000000000000000000000000000000000000000081525060069080519060200190620000519291906200047e565b506040518060400160405280600381526020017f494e470000000000000000000000000000000000000000000000000000000000815250600790805190602001906200009f9291906200047e565b50620000b06200022460201b60201c565b60ff16600a620000c191906200066e565b612710620000d09190620007ab565b6008556040518060400160405280600c81526020017f68656c6c6f20776f6c726421000000000000000000000000000000000000000081525060099080519060200190620001209291906200047e565b503480156200012e57600080fd5b506040518060400160405280600b81526020017f494e474f4f20544f4b454e0000000000000000000000000000000000000000008152506040518060400160405280600381526020017f494e4700000000000000000000000000000000000000000000000000000000008152508160039080519060200190620001b39291906200047e565b508060049080519060200190620001cc9291906200047e565b505050620001ef620001e36200022d60201b60201c565b6200023560201b60201c565b6000600560146101000a81548160ff0219169083151502179055506200021e33600854620002fb60201b60201c565b620008e0565b60006012905090565b600033905090565b6000600560009054906101000a900473ffffffffffffffffffffffffffffffffffffffff16905081600560006101000a81548173ffffffffffffffffffffffffffffffffffffffff021916908373ffffffffffffffffffffffffffffffffffffffff1602179055508173ffffffffffffffffffffffffffffffffffffffff168173ffffffffffffffffffffffffffffffffffffffff167f8be0079c531659141344cd1fd0a4f28419497f9722a3daafe3b4186f6b6457e060405160405180910390a35050565b600073ffffffffffffffffffffffffffffffffffffffff168273ffffffffffffffffffffffffffffffffffffffff1614156200036e576040517f08c379a0000000000000000000000000000000000000000000000000000000008152600401620003659062000566565b60405180910390fd5b62000382600083836200047460201b60201c565b8060026000828254620003969190620005b6565b92505081905550806000808473ffffffffffffffffffffffffffffffffffffffff1673ffffffffffffffffffffffffffffffffffffffff1681526020019081526020016000206000828254620003ed9190620005b6565b925050819055508173ffffffffffffffffffffffffffffffffffffffff16600073ffffffffffffffffffffffffffffffffffffffff167fddf252ad1be2c89b69c2b068fc378daa952ba7f163c4a11628f55a4df523b3ef8360405162000454919062000588565b60405180910390a362000470600083836200047960201b60201c565b5050565b505050565b505050565b8280546200048c9062000816565b90600052602060002090601f016020900481019282620004b05760008555620004fc565b82601f10620004cb57805160ff1916838001178555620004fc565b82800160010185558215620004fc579182015b82811115620004fb578251825591602001919060010190620004de565b5b5090506200050b91906200050f565b5090565b5b808211156200052a57600081600090555060010162000510565b5090565b60006200053d601f83620005a5565b91506200054a82620008b7565b602082019050919050565b62000560816200080c565b82525050565b6000602082019050818103600083015262000581816200052e565b9050919050565b60006020820190506200059f600083018462000555565b92915050565b600082825260208201905092915050565b6000620005c3826200080c565b9150620005d0836200080c565b9250827fffffffffffffffffffffffffffffffffffffffffffffffffffffffffffffffff038211156200060857620006076200084c565b5b828201905092915050565b6000808291508390505b600185111562000665578086048111156200063d576200063c6200084c565b5b60018516156200064d5780820291505b80810290506200065d85620008aa565b94506200061d565b94509492505050565b60006200067b826200080c565b915062000688836200080c565b9250620006b77fffffffffffffffffffffffffffffffffffffffffffffffffffffffffffffffff8484620006bf565b905092915050565b600082620006d15760019050620007a4565b81620006e15760009050620007a4565b8160018114620006fa576002811462000705576200073b565b6001915050620007a4565b60ff8411156200071a57620007196200084c565b5b8360020a9150848211156200073457620007336200084c565b5b50620007a4565b5060208310610133831016604e8410600b8410161715620007755782820a9050838111156200076f576200076e6200084c565b5b620007a4565b62000784848484600162000613565b925090508184048111156200079e576200079d6200084c565b5b81810290505b9392505050565b6000620007b8826200080c565b9150620007c5836200080c565b9250817fffffffffffffffffffffffffffffffffffffffffffffffffffffffffffffffff04831182151516156200080157620008006200084c565b5b828202905092915050565b6000819050919050565b600060028204905060018216806200082f57607f821691505b602082108114156200084657620008456200087b565b5b50919050565b7f4e487b7100000000000000000000000000000000000000000000000000000000600052601160045260246000fd5b7f4e487b7100000000000000000000000000000000000000000000000000000000600052602260045260246000fd5b60008160011c9050919050565b7f45524332303a206d696e7420746f20746865207a65726f206164647265737300600082015250565b611ce280620008f06000396000f3fe608060405234801561001057600080fd5b506004361061012c5760003560e01c8063715018a6116100ad578063a9059cbb11610071578063a9059cbb14610311578063b09f126614610341578063d28d88521461035f578063dd62ed3e1461037d578063f2fde38b146103ad5761012c565b8063715018a6146102915780638456cb591461029b5780638da5cb5b146102a557806395d89b41146102c3578063a457c2d7146102e15761012c565b806339509351116100f457806339509351146101eb5780633eaaf86b1461021b5780633f4ba83a146102395780635c975abb1461024357806370a08231146102615761012c565b806306fdde0314610131578063095ea7b31461014f57806318160ddd1461017f57806323b872dd1461019d578063313ce567146101cd575b600080fd5b6101396103c9565b6040516101469190611638565b60405180910390f35b610169600480360381019061016491906113d0565b61045b565b604051610176919061161d565b60405180910390f35b610187610479565b60405161019491906117ba565b60405180910390f35b6101b760048036038101906101b29190611381565b610483565b6040516101c4919061161d565b60405180910390f35b6101d561057b565b6040516101e291906117d5565b60405180910390f35b610205600480360381019061020091906113d0565b610584565b604051610212919061161d565b60405180910390f35b610223610630565b60405161023091906117ba565b60405180910390f35b610241610636565b005b61024b6106bc565b604051610258919061161d565b60405180910390f35b61027b6004803603810190610276919061131c565b6106d3565b60405161028891906117ba565b60405180910390f35b61029961071b565b005b6102a36107a3565b005b6102ad610829565b6040516102ba9190611602565b60405180910390f35b6102cb610853565b6040516102d89190611638565b60405180910390f35b6102fb60048036038101906102f691906113d0565b6108e5565b604051610308919061161d565b60405180910390f35b61032b600480360381019061032691906113d0565b6109d0565b604051610338919061161d565b60405180910390f35b6103496109ee565b6040516103569190611638565b60405180910390f35b610367610a7c565b6040516103749190611638565b60405180910390f35b61039760048036038101906103929190611345565b610b0a565b6040516103a491906117ba565b60405180910390f35b6103c760048036038101906103c2919061131c565b610b91565b005b6060600380546103d8906118ea565b80601f0160208091040260200160405190810160405280929190818152602001828054610404906118ea565b80156104515780601f1061042657610100808354040283529160200191610451565b820191906000526020600020905b81548152906001019060200180831161043457829003601f168201915b5050505050905090565b600061046f610468610c89565b8484610c91565b6001905092915050565b6000600254905090565b6000610490848484610e5c565b6000600160008673ffffffffffffffffffffffffffffffffffffffff1673ffffffffffffffffffffffffffffffffffffffff16815260200190815260200160002060006104db610c89565b73ffffffffffffffffffffffffffffffffffffffff1673ffffffffffffffffffffffffffffffffffffffff1681526020019081526020016000205490508281101561055b576040517f08c379a00000000000000000000000000000000000000000000000000000000081526004016105529061171a565b60405180910390fd5b61056f85610567610c89565b858403610c91565b60019150509392505050565b60006012905090565b6000610626610591610c89565b84846001600061059f610c89565b73ffffffffffffffffffffffffffffffffffffffff1673ffffffffffffffffffffffffffffffffffffffff16815260200190815260200160002060008873ffffffffffffffffffffffffffffffffffffffff1673ffffffffffffffffffffffffffffffffffffffff16815260200190815260200160002054610621919061180c565b610c91565b6001905092915050565b60085481565b61063e610c89565b73ffffffffffffffffffffffffffffffffffffffff1661065c610829565b73ffffffffffffffffffffffffffffffffffffffff16146106b2576040517f08c379a00000000000000000000000000000000000000000000000000000000081526004016106a99061173a565b60405180910390fd5b6106ba6110dd565b565b6000600560149054906101000a900460ff16905090565b60008060008373ffffffffffffffffffffffffffffffffffffffff1673ffffffffffffffffffffffffffffffffffffffff168152602001908152602001600020549050919050565b610723610c89565b73ffffffffffffffffffffffffffffffffffffffff16610741610829565b73ffffffffffffffffffffffffffffffffffffffff1614610797576040517f08c379a000000000000000000000000000000000000000000000000000000000815260040161078e9061173a565b60405180910390fd5b6107a1600061117f565b565b6107ab610c89565b73ffffffffffffffffffffffffffffffffffffffff166107c9610829565b73ffffffffffffffffffffffffffffffffffffffff161461081f576040517f08c379a00000000000000000000000000000000000000000000000000000000081526004016108169061173a565b60405180910390fd5b610827611245565b565b6000600560009054906101000a900473ffffffffffffffffffffffffffffffffffffffff16905090565b606060048054610862906118ea565b80601f016020809104026020016040519081016040528092919081815260200182805461088e906118ea565b80156108db5780601f106108b0576101008083540402835291602001916108db565b820191906000526020600020905b8154815290600101906020018083116108be57829003601f168201915b5050505050905090565b600080600160006108f4610c89565b73ffffffffffffffffffffffffffffffffffffffff1673ffffffffffffffffffffffffffffffffffffffff16815260200190815260200160002060008573ffffffffffffffffffffffffffffffffffffffff1673ffffffffffffffffffffffffffffffffffffffff168152602001908152602001600020549050828110156109b1576040517f08c379a00000000000000000000000000000000000000000000000000000000081526004016109a89061179a565b60405180910390fd5b6109c56109bc610c89565b85858403610c91565b600191505092915050565b60006109e46109dd610c89565b8484610e5c565b6001905092915050565b600780546109fb906118ea565b80601f0160208091040260200160405190810160405280929190818152602001828054610a27906118ea565b8015610a745780601f10610a4957610100808354040283529160200191610a74565b820191906000526020600020905b815481529060010190602001808311610a5757829003601f168201915b505050505081565b60068054610a89906118ea565b80601f0160208091040260200160405190810160405280929190818152602001828054610ab5906118ea565b8015610b025780601f10610ad757610100808354040283529160200191610b02565b820191906000526020600020905b815481529060010190602001808311610ae557829003601f168201915b505050505081565b6000600160008473ffffffffffffffffffffffffffffffffffffffff1673ffffffffffffffffffffffffffffffffffffffff16815260200190815260200160002060008373ffffffffffffffffffffffffffffffffffffffff1673ffffffffffffffffffffffffffffffffffffffff16815260200190815260200160002054905092915050565b610b99610c89565b73ffffffffffffffffffffffffffffffffffffffff16610bb7610829565b73ffffffffffffffffffffffffffffffffffffffff1614610c0d576040517f08c379a0000000000000000000000000000000000000000000000000000000008152600401610c049061173a565b60405180910390fd5b600073ffffffffffffffffffffffffffffffffffffffff168173ffffffffffffffffffffffffffffffffffffffff161415610c7d576040517f08c379a0000000000000000000000000000000000000000000000000000000008152600401610c749061169a565b60405180910390fd5b610c868161117f565b50565b600033905090565b600073ffffffffffffffffffffffffffffffffffffffff168373ffffffffffffffffffffffffffffffffffffffff161415610d01576040517f08c379a0000000000000000000000000000000000000000000000000000000008152600401610cf89061177a565b60405180910390fd5b600073ffffffffffffffffffffffffffffffffffffffff168273ffffffffffffffffffffffffffffffffffffffff161415610d71576040517f08c379a0000000000000000000000000000000000000000000000000000000008152600401610d68906116ba565b60405180910390fd5b80600160008573ffffffffffffffffffffffffffffffffffffffff1673ffffffffffffffffffffffffffffffffffffffff16815260200190815260200160002060008473ffffffffffffffffffffffffffffffffffffffff1673ffffffffffffffffffffffffffffffffffffffff168152602001908152602001600020819055508173ffffffffffffffffffffffffffffffffffffffff168373ffffffffffffffffffffffffffffffffffffffff167f8c5be1e5ebec7d5bd14f71427d1e84f3dd0314c0f7b2291e5b200ac8c7c3b92583604051610e4f91906117ba565b60405180910390a3505050565b600073ffffffffffffffffffffffffffffffffffffffff168373ffffffffffffffffffffffffffffffffffffffff161415610ecc576040517f08c379a0000000000000000000000000000000000000000000000000000000008152600401610ec39061175a565b60405180910390fd5b600073ffffffffffffffffffffffffffffffffffffffff168273ffffffffffffffffffffffffffffffffffffffff161415610f3c576040517f08c379a0000000000000000000000000000000000000000000000000000000008152600401610f339061165a565b60405180910390fd5b610f478383836112e8565b60008060008573ffffffffffffffffffffffffffffffffffffffff1673ffffffffffffffffffffffffffffffffffffffff16815260200190815260200160002054905081811015610fcd576040517f08c379a0000000000000000000000000000000000000000000000000000000008152600401610fc4906116da565b60405180910390fd5b8181036000808673ffffffffffffffffffffffffffffffffffffffff1673ffffffffffffffffffffffffffffffffffffffff16815260200190815260200160002081905550816000808573ffffffffffffffffffffffffffffffffffffffff1673ffffffffffffffffffffffffffffffffffffffff1681526020019081526020016000206000828254611060919061180c565b925050819055508273ffffffffffffffffffffffffffffffffffffffff168473ffffffffffffffffffffffffffffffffffffffff167fddf252ad1be2c89b69c2b068fc378daa952ba7f163c4a11628f55a4df523b3ef846040516110c491906117ba565b60405180910390a36110d78484846112ed565b50505050565b6110e56106bc565b611124576040517f08c379a000000000000000000000000000000000000000000000000000000000815260040161111b9061167a565b60405180910390fd5b6000600560146101000a81548160ff0219169083151502179055507f5db9ee0a495bf2e6ff9c91a7834c1ba4fdd244a5e8aa4e537bd38aeae4b073aa611168610c89565b6040516111759190611602565b60405180910390a1565b6000600560009054906101000a900473ffffffffffffffffffffffffffffffffffffffff16905081600560006101000a81548173ffffffffffffffffffffffffffffffffffffffff021916908373ffffffffffffffffffffffffffffffffffffffff1602179055508173ffffffffffffffffffffffffffffffffffffffff168173ffffffffffffffffffffffffffffffffffffffff167f8be0079c531659141344cd1fd0a4f28419497f9722a3daafe3b4186f6b6457e060405160405180910390a35050565b61124d6106bc565b1561128d576040517f08c379a0000000000000000000000000000000000000000000000000000000008152600401611284906116fa565b60405180910390fd5b6001600560146101000a81548160ff0219169083151502179055507f62e78cea01bee320cd4e420270b5ea74000d11b0c9f74754ebdbfc544b05a2586112d1610c89565b6040516112de9190611602565b60405180910390a1565b505050565b505050565b60008135905061130181611c7e565b92915050565b60008135905061131681611c95565b92915050565b60006020828403121561132e57600080fd5b600061133c848285016112f2565b91505092915050565b6000806040838503121561135857600080fd5b6000611366858286016112f2565b9250506020611377858286016112f2565b9150509250929050565b60008060006060848603121561139657600080fd5b60006113a4868287016112f2565b93505060206113b5868287016112f2565b92505060406113c686828701611307565b9150509250925092565b600080604083850312156113e357600080fd5b60006113f1858286016112f2565b925050602061140285828601611307565b9150509250929050565b61141581611862565b82525050565b61142481611874565b82525050565b6000611435826117f0565b61143f81856117fb565b935061144f8185602086016118b7565b6114588161197a565b840191505092915050565b60006114706023836117fb565b915061147b8261198b565b604082019050919050565b60006114936014836117fb565b915061149e826119da565b602082019050919050565b60006114b66026836117fb565b91506114c182611a03565b604082019050919050565b60006114d96022836117fb565b91506114e482611a52565b604082019050919050565b60006114fc6026836117fb565b915061150782611aa1565b604082019050919050565b600061151f6010836117fb565b915061152a82611af0565b602082019050919050565b60006115426028836117fb565b915061154d82611b19565b604082019050919050565b60006115656020836117fb565b915061157082611b68565b602082019050919050565b60006115886025836117fb565b915061159382611b91565b604082019050919050565b60006115ab6024836117fb565b91506115b682611be0565b604082019050919050565b60006115ce6025836117fb565b91506115d982611c2f565b604082019050919050565b6115ed816118a0565b82525050565b6115fc816118aa565b82525050565b6000602082019050611617600083018461140c565b92915050565b6000602082019050611632600083018461141b565b92915050565b60006020820190508181036000830152611652818461142a565b905092915050565b6000602082019050818103600083015261167381611463565b9050919050565b6000602082019050818103600083015261169381611486565b9050919050565b600060208201905081810360008301526116b3816114a9565b9050919050565b600060208201905081810360008301526116d3816114cc565b9050919050565b600060208201905081810360008301526116f3816114ef565b9050919050565b6000602082019050818103600083015261171381611512565b9050919050565b6000602082019050818103600083015261173381611535565b9050919050565b6000602082019050818103600083015261175381611558565b9050919050565b600060208201905081810360008301526117738161157b565b9050919050565b600060208201905081810360008301526117938161159e565b9050919050565b600060208201905081810360008301526117b3816115c1565b9050919050565b60006020820190506117cf60008301846115e4565b92915050565b60006020820190506117ea60008301846115f3565b92915050565b600081519050919050565b600082825260208201905092915050565b6000611817826118a0565b9150611822836118a0565b9250827fffffffffffffffffffffffffffffffffffffffffffffffffffffffffffffffff038211156118575761185661191c565b5b828201905092915050565b600061186d82611880565b9050919050565b60008115159050919050565b600073ffffffffffffffffffffffffffffffffffffffff82169050919050565b6000819050919050565b600060ff82169050919050565b60005b838110156118d55780820151818401526020810190506118ba565b838111156118e4576000848401525b50505050565b6000600282049050600182168061190257607f821691505b602082108114156119165761191561194b565b5b50919050565b7f4e487b7100000000000000000000000000000000000000000000000000000000600052601160045260246000fd5b7f4e487b7100000000000000000000000000000000000000000000000000000000600052602260045260246000fd5b6000601f19601f8301169050919050565b7f45524332303a207472616e7366657220746f20746865207a65726f206164647260008201527f6573730000000000000000000000000000000000000000000000000000000000602082015250565b7f5061757361626c653a206e6f7420706175736564000000000000000000000000600082015250565b7f4f776e61626c653a206e6577206f776e657220697320746865207a65726f206160008201527f6464726573730000000000000000000000000000000000000000000000000000602082015250565b7f45524332303a20617070726f766520746f20746865207a65726f20616464726560008201527f7373000000000000000000000000000000000000000000000000000000000000602082015250565b7f45524332303a207472616e7366657220616d6f756e742065786365656473206260008201527f616c616e63650000000000000000000000000000000000000000000000000000602082015250565b7f5061757361626c653a2070617573656400000000000000000000000000000000600082015250565b7f45524332303a207472616e7366657220616d6f756e742065786365656473206160008201527f6c6c6f77616e6365000000000000000000000000000000000000000000000000602082015250565b7f4f776e61626c653a2063616c6c6572206973206e6f7420746865206f776e6572600082015250565b7f45524332303a207472616e736665722066726f6d20746865207a65726f20616460008201527f6472657373000000000000000000000000000000000000000000000000000000602082015250565b7f45524332303a20617070726f76652066726f6d20746865207a65726f2061646460008201527f7265737300000000000000000000000000000000000000000000000000000000602082015250565b7f45524332303a2064656372656173656420616c6c6f77616e63652062656c6f7760008201527f207a65726f000000000000000000000000000000000000000000000000000000602082015250565b611c8781611862565b8114611c9257600080fd5b50565b611c9e816118a0565b8114611ca957600080fd5b5056fea264697066735822122059d41e35526c536c34696d195fa9a0ccefe14be873a7bcf1fbb73e090d19ee8664736f6c63430008010033",
  "immutableReferences": {},
  "source": "// SPDX-License-Identifier: MIT\npragma solidity >=0.4.22 <0.9.0;\nimport '../node_modules/openzeppelin-solidity/contracts/token/ERC20/ERC20.sol';\nimport '../node_modules/openzeppelin-solidity/contracts/access/Ownable.sol';\nimport '../node_modules/openzeppelin-solidity/contracts/security/Pausable.sol';\n\ncontract IngToken is ERC20,Ownable,Pausable{\n  \n  string public _name = \"INGOO TOKEN\";\n  string public _symbol = \"ING\";\n  uint256 public _totalSupply = 10000 * (10**uint256(decimals())); \n  string text = \"hello wolrd!\";\n\n  constructor() ERC20(\"INGOO TOKEN\",\"ING\") {\n    _mint(msg.sender,_totalSupply);\n  }\n\n  function pause() public onlyOwner{\n    _pause();\n  }\n\n  function unpause() public onlyOwner{\n   _unpause();  \n  }\n}",
  "sourcePath": "C:\\Users\\KGA_19\\gan\\contracts\\IngToken.sol",
  "compiler": {
    "name": "solc",
    "version": "0.8.1+commit.df193b15.Emscripten.clang"
  },
  "schemaVersion": "3.4.3",
  "updatedAt": "2021-10-20T04:32:45.186Z",
  "devdoc": {
    "kind": "dev",
    "methods": {
      "allowance(address,address)": {
        "details": "See {IERC20-allowance}."
      },
      "approve(address,uint256)": {
        "details": "See {IERC20-approve}. Requirements: - `spender` cannot be the zero address."
      },
      "balanceOf(address)": {
        "details": "See {IERC20-balanceOf}."
      },
      "decimals()": {
        "details": "Returns the number of decimals used to get its user representation. For example, if `decimals` equals `2`, a balance of `505` tokens should be displayed to a user as `5.05` (`505 / 10 ** 2`). Tokens usually opt for a value of 18, imitating the relationship between Ether and Wei. This is the value {ERC20} uses, unless this function is overridden; NOTE: This information is only used for _display_ purposes: it in no way affects any of the arithmetic of the contract, including {IERC20-balanceOf} and {IERC20-transfer}."
      },
      "decreaseAllowance(address,uint256)": {
        "details": "Atomically decreases the allowance granted to `spender` by the caller. This is an alternative to {approve} that can be used as a mitigation for problems described in {IERC20-approve}. Emits an {Approval} event indicating the updated allowance. Requirements: - `spender` cannot be the zero address. - `spender` must have allowance for the caller of at least `subtractedValue`."
      },
      "increaseAllowance(address,uint256)": {
        "details": "Atomically increases the allowance granted to `spender` by the caller. This is an alternative to {approve} that can be used as a mitigation for problems described in {IERC20-approve}. Emits an {Approval} event indicating the updated allowance. Requirements: - `spender` cannot be the zero address."
      },
      "name()": {
        "details": "Returns the name of the token."
      },
      "owner()": {
        "details": "Returns the address of the current owner."
      },
      "paused()": {
        "details": "Returns true if the contract is paused, and false otherwise."
      },
      "renounceOwnership()": {
        "details": "Leaves the contract without owner. It will not be possible to call `onlyOwner` functions anymore. Can only be called by the current owner. NOTE: Renouncing ownership will leave the contract without an owner, thereby removing any functionality that is only available to the owner."
      },
      "symbol()": {
        "details": "Returns the symbol of the token, usually a shorter version of the name."
      },
      "totalSupply()": {
        "details": "See {IERC20-totalSupply}."
      },
      "transfer(address,uint256)": {
        "details": "See {IERC20-transfer}. Requirements: - `recipient` cannot be the zero address. - the caller must have a balance of at least `amount`."
      },
      "transferFrom(address,address,uint256)": {
        "details": "See {IERC20-transferFrom}. Emits an {Approval} event indicating the updated allowance. This is not required by the EIP. See the note at the beginning of {ERC20}. Requirements: - `sender` and `recipient` cannot be the zero address. - `sender` must have a balance of at least `amount`. - the caller must have allowance for ``sender``'s tokens of at least `amount`."
      },
      "transferOwnership(address)": {
        "details": "Transfers ownership of the contract to a new account (`newOwner`). Can only be called by the current owner."
      }
    },
    "version": 1
  },
  "userdoc": {
    "kind": "user",
    "methods": {},
    "version": 1
  }
}